:100000000C9439000C9456000C9456000C94560035
:100010000C9456000C9456000C9456000C94560008
:100020000C9456000C9456000C9456000C945600F8
:100030000C9456000C9456000C9456000C945600E8
:100040000C9456000C9456000C9456000C945600D8
:100050000C9456000C9456000C9456000C945600C8
:100060000C9456000C94560009000A010B070C0171
:100070000F0011241FBECFEFD8E0DEBFCDBF11E0CF
:10008000A0E0B1E0EAECFBE002C005900D92A034E4
:10009000B107D9F721E0A0E4B1E001C01D92A73576
:1000A000B207E1F70E948B020C94E3050C94000068
:1000B000EF92FF920F931F93CF93DF93EC0100E039
:1000C00010E07C0182EDE80EF11CF7018081918146
:1000D000081719073CF0DF91CF911F910F91FF9006
:1000E000EF900895698188810E9468010E94D5017E
:1000F0000F5F1F4F2296E9CFEF92FF920F931F934E
:10010000CF93DF93EC0100E010E07C0182EDE80E7C
:10011000F11CF70180819181081719073CF0DF91EC
:10012000CF911F910F91FF90EF9008956981888181
:100130000E9478010E94D5010F5F1F4F2296E9CFE0
:10014000CF92DF92EF92FF92CF93DF93D82FC92FF8
:1001500081E00E9443026C01E12CF12C80E00E94BE
:1001600043029C014CE2C41641E0D406E104F104D0
:10017000A8F48CE191E09F938F930E94E802109283
:1001800040010F900F90D1E0C0E08D2F9C2FDF91A8
:10019000CF91FF90EF90DF90CF9008958DEBC81630
:1001A00082E0D806E104F10460F082E291E09F93DE
:1001B0008F930E94E802109240010F900F90D0E0C0
:1001C000E3CFC901A0E0B0E02D3B324060F087E210
:1001D00091E09F938F930E94E802109240010F904C
:1001E0000F90D2E0D1CF8C329140A105B10568F6D5
:1001F0008AE291E09F938F930E94E802109240015F
:100200000F900F90D3E0C0CF0F931F93CF93DF9346
:10021000EC01CB01088119816230710571F5112360
:1002200009F43FC01150FE01EE52FF4F4081518151
:10023000CA010197880F991F22E030E014161506B5
:1002400024F4241B350B220F331F141615068CF5CE
:10025000AC01BC0162507109620F731F6C0F7D1FEE
:10026000820F931F8C0F9D1F0E94D6020883198353
:10027000DF91CF911F910F9108956330710521F4A3
:10028000173089F01F5FCFCF892B21F4002369F04D
:100290000150C9CF6130710531F60F3041F00F5F69
:1002A000C2CF17E0C0CF10E0BECF0FE0BCCF00E060
:1002B000BACF40E050E0CDCFFC01DC01AE52BF4FE1
:1002C00081E090E08D939C9385E080838183089505
:1002D000803168F4E82FF0E0EF5BFE4F81E090E0C2
:1002E00001C0880F6A95EAF76081682B60830895E2
:1002F000803188F4E82FF0E0EF5BFE4F81E090E082
:100300009C0102C0220F331F6A95E2F7B901609584
:100310008081682360830895E82FF0E0EF5BFE4F53
:100320008081089598E02D9887FF07C02B9A2D9A19
:10033000880F91509111F7CF08952B98F8CF0F9314
:100340001F93CF93DF93C62F2A98082F10E0C80180
:100350000E949201D0E0CE010E949201C8010E9449
:100360009201CE010E9492012A9A2D98DF91CF919D
:100370001F910F9108950F931F93CF93DF93259AA9
:10038000229A239AC8E6D0E002E710E0FE018491A9
:10039000319664910E949F0122960C171D07B1F7B8
:1003A000DF91CF911F910F910895FF920F931F93AB
:1003B000CF93DF93C8E0D0E080E8F82E2A9800E0E1
:1003C00010E0CE010E949201F801EF5BFE4F88E041
:1003D00092912D989F219923B1F02B9A2D9A8150BB
:1003E0008111F6CF085F1F4F0831110551F72A9A86
:1003F0002D98F6942197209709F7DF91CF911F91BF
:100400000F91FF9008952B98E9CF9FEF980F9830A8
:1004100010F40C949F010895CF93C82F8A3019F4DB
:100420008DE00E940C028091C00085FFFCCFC0933C
:10043000C60080E090E0CF9108958091C00087FFD2
:10044000FCCF8091C60090E008951092C50083E330
:100450008093C400E0ECF0E080818D7F808386E0B3
:100460008093C20088E18093C10008950E94250214
:10047000E1E5F1E08EE091E09383828380E091E01A
:1004800091838083089590917C00906490937C0088
:1004900090917A00976090937A0090917A0090689A
:1004A00090937A0090917C00982B90937C0090918F
:1004B0007C00907F90937C00833029F190F4813010
:1004C000C1F08230E1F080917A00806480937A00FC
:1004D00080917A0086FDFCCF809178009091790020
:1004E00008958430A1F0853071F780917C0085609B
:1004F00003C080917C00816080937C00E4CF809178
:100500007C008260F9CF80917C008360F5CF809180
:100510007C008460F1CFCDB7DEB7C45DD1090FB6E2
:10052000F894DEBF0FBECDBF389839980E943602CE
:100530000E94BB0181E090E0CD52DF4F9983888318
:10054000C35DD04085E089838A8301E010E099246F
:100550009394CE0101967C018FE2A82E81E0B82E03
:1005600090924001C7010E945800670180914001AC
:10057000811117C0BF92AF920E94E802C6010E948B
:100580007C00B801C6010E9404019FEF23EC89E0C2
:10059000915020408040E1F700C000000F900F9084
:1005A000DFCFC8010E94A0008C01E0CF6817790757
:1005B00068F4FB01DC01E40FF51FA40FB51F02C0B6
:1005C00002900E9241505040D8F708950C940A05BD
:1005D000A0E0B0E0EEEEF2E00C94BC05AE014B5FA3
:1005E0005F4FFA0161917191AF0180915301909138
:1005F00054010E94FE02E2E00C94D805AFE0B0E0A6
:10060000E4E0F3E00C94AF056C017B018A01DC01AE
:1006100017961C921E92169713968C9181FFECC12F
:100620002AE0522EF6019381F70193FD859193FF05
:1006300081917F01882309F473C0853239F493FDD9
:10064000859193FF81917F01853229F4B60190E075
:100650000E941E05E7CF912C612C712CFFE1F7154C
:1006600008F446C08B32C9F1F8F48032C1F183320C
:1006700009F43BC0833609F48AC0833709F493C078
:10068000833509F0B6C0F801A190B1908F01692DB2
:1006900070E076FC02C06FEF7FEFC5010E94FF049F
:1006A0004C01689477F85FC08D32E1F0803351F0EF
:1006B00020ED280F2A3048F18E3209F039C06894B5
:1006C00076F802C0689470F8F70193FD859193FF66
:1006D00081917F018111C2CF33C0689471F8689411
:1006E00072F8F2CF689473F8EFCF689474F8ECCF97
:1006F00077FC26C020ED280F2A3070F476FE05C066
:10070000959C200D1124922EDFCF659C200D112485
:10071000622E689475F8D8CF8E3251F476FECFCF22
:10072000D60116968D919C912F96EFE00C94CB05F7
:100730008C3619F4689477F8C7CF883609F4C4CF9B
:10074000982F9F7D9554933008F094CF0C5F1F4FE6
:100750008FE3898388248394912CAE014F5F5F4F90
:100760005A01E89477F873FC05C0862D90E088164E
:10077000990640F18114910461F5662009F452CF85
:10078000B60180E290E00E941E056A94F6CFD8017F
:100790008C9189830E5F1F4F88248394912CFE01D6
:1007A00031965F01DECFD801AD90BD908D01692DEE
:1007B00070E076FC02C06FEF7FEFC5010E94130569
:1007C0004C01CFCFB60180E290E00E941E056A94F2
:1007D000CCCFF50177FC859177FE81915F01B60161
:1007E00090E00E941E0561106A94F1E08F1A910852
:1007F000C1CF843619F0893609F081C0F80177FE3F
:1008000077C061917191819191918F01272D2F7600
:10081000822E97FF09C090958095709561957F4FC6
:100820008F4F9F4F689487F82AE030E0AE014F5F0A
:100830005F4F5A010E944E058A19A82EBA2C782CB7
:1008400086FE0CC0E89470F8A91440F484FE05C03C
:1008500082FC03C0782D7E7E772EB92C74FEA5C055
:10086000FE01EA0DF11D8081803309F097C0872DCC
:10087000897E782E73FC0EC070FEA6C09A2CB6142A
:1008800018F4960C9B18B62C862D8B196B1408F453
:1008900080E0B80EB61408F099C06B1874FE98C0CA
:1008A000B60180E390E00E941E0572FE09C088E553
:1008B00090E071FC02C088E790E0B6010E941E053E
:1008C000A91408F492C0AA94B12C9FEFA91AB90AEE
:1008D000DE0111964D01AA0EBB1EF50182915F014A
:1008E000B60190E00E941E058A149B04B1F745CF23
:1008F00061917191072E000C880B990B86CF872C84
:10090000E89484F82AE030E0853769F0572D597F64
:10091000852E803771F118F5883571F18F3609F021
:10092000FFCE28E030E0F80187FE2EC08191919142
:10093000A191B1918C879D87AE87BF878F01BE0142
:100940006F5F7F4F5B01AB016C857D858E859F85D9
:100950000E944E058A19A82EE89487F86FCF883731
:1009600009F0DECE84FE02C0689482F820E130E017
:10097000DACF689484F8F6CF74FE03C0652F666002
:10098000862E20E132E0CFCF81919191AC0160E0E1
:1009900070E04C875D876E877F87D0CF72FC02C086
:1009A000B39468CFB394B39465CF872D86788823AA
:1009B00009F460CFF5CFB60180E290E00E941E05F9
:1009C00083948614C0F360CF8B2CFBCF612C66CF51
:1009D000872D8678882309F473CF8BE271FE80E23D
:1009E00077FC8DE2B60190E069CFB60180E390E03C
:1009F0000E941E059A9464CF8FEF9FEF95CEFC0165
:100A00000590615070400110D8F7809590958E0F39
:100A10009F1F0895FB01DC0102C001900D9241501F
:100A20005040D8F70895FC016150704001900110CA
:100A3000D8F7809590958E0F9F1F08950F931F9361
:100A4000CF93DF93182F092FEB018B8181FD09C014
:100A50001FEF0FEF812F902FDF91CF911F910F91FB
:100A6000089582FF14C02E813F818C819D812817BB
:100A700039073CF4E881F981CF0101969983888395
:100A800010838E819F8101969F838E83E3CFE885BB
:100A9000F985812F0995892BA1F3DACFFA01AA27CD
:100AA000283051F1203181F1E8946F936E7F6E5FB1
:100AB0007F4F8F4F9F4FAF4FB1E03ED0B4E03CD05F
:100AC000670F781F891F9A1FA11D680F791F8A1F42
:100AD000911DA11D6A0F711D811D911DA11D20D0A9
:100AE00009F468943F912AE0269F11243019305D63
:100AF0003193DEF6CF010895462F4770405D419354
:100B0000B3E00FD0C9F7F6CF462F4F70405D4A33A0
:100B100018F0495D31FD4052419302D0A9F7EACF68
:100B2000B4E0A6959795879577956795BA95C9F797
:100B300000976105710508959B01AC010A2E06948A
:100B40005795479537952795BA95C9F7620F731F43
:100B5000841F951FA01D08952F923F924F925F9280
:100B60006F927F928F929F92AF92BF92CF92DF92BD
:100B7000EF92FF920F931F93CF93DF93CDB7DEB722
:100B8000CA1BDB0B0FB6F894DEBF0FBECDBF0994B6
:100B90002A88398848885F846E847D848C849B840D
:100BA000AA84B984C884DF80EE80FD800C811B811B
:100BB000AA81B981CE0FD11D0FB6F894DEBF0FBE4A
:0A0BC000CDBFED010895F894FFCFBA
:100BCA00000000010000000000001D0200000000FB
:100BDA000002000000000C020000000052494748D1
:100BEA0054004C45465400555000444F574E00544B
:100BFA004553542121212121212121212121000094
:00000001FF
