:100000000C9439000C9456000C9456000C94560035
:100010000C9456000C9456000C9456000C949A03C1
:100020000C9456000C9456000C9456000C945600F8
:100030000C9456000C9456000C9456000C945600E8
:100040000C9456000C9456000C9456000C945600D8
:100050000C9456000C9456000C9456000C945600C8
:100060000C9456000C94560009000A010B070C0171
:100070000F0011241FBECFEFD8E0DEBFCDBF11E0CF
:10008000A0E0B1E0EEE9F1E102C005900D92A636E4
:10009000B107D9F721E0A6E6B1E001C01D92A4386E
:1000A000B207E1F70E94E1030C94CD080C94000024
:1000B000EF92FF920F931F93CF93DF93EC0100E039
:1000C00010E07C0182EDE80EF11CF7018081918146
:1000D000081719073CF0DF91CF911F910F91FF9006
:1000E000EF900895698188810E94F3010E94600267
:1000F0000F5F1F4F2296E9CFEF92FF920F931F934E
:10010000CF93DF93EC0100E010E07C0182EDE80E7C
:10011000F11CF70180819181081719073CF0DF91EC
:10012000CF911F910F91FF90EF9008956981888181
:100130000E9403020E9460020F5F1F4F2296E9CFC8
:10014000CF92DF92EF92FF92CF93DF93EC0181E0A9
:100150000E94CE026C01E12CF12C80E00E94CE02C4
:10016000A0E0B0E02CE2C21621E0D206E104F104E6
:1001700028F4209769F0C1E0D0E02CC02DEBC21626
:1001800022E0D206E104F10488F0C130D10551F536
:100190008D3B22E09207A105B10588F48C32914095
:1001A000A105B105B8F4C3E0D0E014C08D3B22E056
:1001B0009207A105B10530F0C330D10559F0C2E076
:1001C000D0E008C08C329140A105B10518F4C230CE
:1001D000D10549F7CE01DF91CF91FF90EF90DF90ED
:1001E000CF900895C0E0D0E0F5CFDC01FB019C91F9
:1001F0008081981305C081E011962C91918129137B
:1002000080E008950F931F93CF93DF93EC01CB0110
:10021000088119816230710579F5112309F443C011
:100220001150FE01EE52FF4F40815181CA010197EA
:10023000880F991F22E030E01416150624F4241BC1
:10024000350B220F331F1416150654F5AC01BC01F3
:1002500062507109620F731F6C0F7D1F820F931F15
:100260008C0F9D1F0E945D050883198381E0DF913B
:10027000CF911F910F9108956330710521F41730CC
:1002800091F01F5FCECF892B21F4002361F0015044
:10029000C8CF6130710529F60F3029F00F5FC1CF4B
:1002A00040E050E0D4CF80E0E2CFCF93DF93EC0189
:1002B000FC01EE52FF4F81E090E0918380830E9429
:1002C0004D056FE070E00E94C20488830E944D05D6
:1002D00067E070E00E94C2048983DF91CF910895A6
:1002E000FC01CB01DB01AE52BF4F6D917C9120E050
:1002F00030E02617370714F080E00895DC015C91A8
:100300004081451303C05181451721F02F5F3F4FB6
:100310000296EFCF81E00895CF92DF92EF92FF92A5
:100320000F931F93CF93DF9300D000D0CDB7DEB7EC
:100330009A8389837C836B8387E0C82ED12C9FE0CE
:10034000E92EF12C0E944D0509811A81B6010E9407
:10035000C204F80181830E944D05B7010E94C204C6
:10036000F8018083BE016D5F7F4FCE0101960E9430
:1003700070018111E7CF0F900F900F900F90DF91D8
:10038000CF911F910F91FF90EF90DF90CF90089544
:10039000DC01FB01EE52FF4F20813181FB0181E046
:1003A00090E08217930714F080E008955C914281F9
:1003B000541306C011965C9111974381541719F09C
:1003C00001963296EECF81E00895FC016181808133
:1003D0000E94F3010C946002FC01618180810E9403
:1003E00003020C946002803168F4E82FF0E0EA59CF
:1003F000FE4F81E090E001C0880F6A95EAF76081C6
:10040000682B60830895803188F4E82FF0E0EA5982
:10041000FE4F81E090E09C0102C0220F331F6A95DD
:10042000E2F7B90160958081682360830895E82F21
:10043000F0E0EA59FE4F8081089598E02D9887FFFB
:1004400007C02B9A2D9A880F91509111F7CF0895DC
:100450002B98F8CF0F931F93CF93DF93C62F2A9833
:10046000082F10E0C8010E941D02D0E0CE010E94BA
:100470001D02C8010E941D02CE010E941D022A9A7F
:100480002D98DF91CF911F910F9108950F931F9396
:10049000CF93DF93259A229A239AC8E6D0E002E709
:1004A00010E0FE018491319664910E942A02229606
:1004B0000C171D07B1F7DF91CF911F910F91089590
:1004C000FF920F931F93CF93DF93C8E0D0E080E8B3
:1004D000F82E2A9800E010E0CE010E941D02F801DB
:1004E000EA59FE4F88E092912D989F219923B1F00F
:1004F0002B9A2D9A81508111F6CF085F1F4F08313A
:10050000110551F72A9A2D98F6942197209709F70B
:10051000DF91CF911F910F91FF9008952B98E9CF14
:100520009FEF980F983010F40C942A020895CF93FF
:10053000C82F8A3019F48DE00E9497028091C00084
:1005400085FFFCCFC093C60080E090E0CF91089576
:100550008091C00087FFFCCF8091C60090E0089595
:100560001092C50083E38093C400E0ECF0E080814A
:100570008D7F808386E08093C20088E18093C100F4
:1005800008950E94B002EAE7F1E08EE091E09383E3
:10059000828380E091E091838083089590917C0034
:1005A000906490937C0090917A00976090937A0089
:1005B00090917A00906890937A0090917C00982BAB
:1005C00090937C0090917C00907F90937C0083308E
:1005D00029F190F48130C1F08230E1F080917A000D
:1005E000806480937A0080917A0086FDFCCF8091B0
:1005F00078009091790008958430A1F0853071F7EA
:1006000080917C00856003C080917C008160809334
:100610007C00E4CF80917C008260F9CF80917C00E7
:100620008360F5CF80917C008460F1CF82E080937D
:10063000B00094E09093B1008093700089EF8093B4
:10064000B3000895CF93DF9300D000D0CDB7DEB7CD
:100650008FB7F8942091760130917701409178011D
:100660005091790129833A834B835C838FBF6981E1
:100670007A818B819C810F900F900F900F90DF916A
:10068000CF910895E4E6F0E080818F7B8083E0E7FE
:10069000F0E08081826080830895E0E7F0E080816F
:1006A0008D7F8083E4E6F0E080818064808308951C
:1006B0008FB7F8941092760110927701109278011A
:1006C000109279018FBF0895462F572FBC012FB785
:1006D000F8948091760190917701A0917801B09182
:1006E0007901840F951FA61FB71F80937601909301
:1006F0007701A0937801B09379012FBF0895462F19
:10070000572FBC012FB7F894809176019091770113
:10071000A0917801B0917901841B950BA60BB70BC2
:100720008093760190937701A0937801B09379013B
:100730002FBF08951F921FB61F9211248F939F936E
:10074000AF93BF938091760190917701A09178014A
:10075000B09179010196A11DB11D8093760190930E
:100760007701A0937801B0937901BF91AF919F91E8
:100770008F911F901FBE1F901895A4E0B0E0E3EC8E
:10078000F3E00C947508FC010FB6F8948091800199
:1007900090918101A0918201B091830189839A8314
:1007A000AB83BC830FBE309721F080839183A283FB
:1007B000B38369817A818B819C812496E2E00C94D9
:1007C0009108CDB7DEB7CC5DD1090FB6F894DEBF86
:1007D0000FBECDBF3898399880E090E00E94BD03ED
:1007E000CB010E9452050E94C1020E9446020E9453
:1007F000160378948E010F5F1F4FC8010E945501A8
:10080000CB52DF4F19821882C55DD04081E00E9433
:10081000CE026C0180E00E94CE027C0180E2A82E14
:1008200081E0B82E81E00E94CE02C816D90609F4F4
:1008300061C05E0127EDA20EB11CB801C5010E9486
:100840008C01C5010E94E501FF24F394E12CDA2C10
:10085000CB2C8F2D9E2D0E94A000F82EE92E0E94F9
:100860002203C752DF4F688379838A839B83C95DE4
:10087000D040CB52DF4F88819981C55DD040092E91
:10088000000CAA0BBB0BC752DF4F288139814A816C
:100890005B81C95DD040281B390B4A0B5B0B293C9F
:1008A000310541055105A8F20E942203462F572F1A
:1008B000CB52DF4F59834883C55DD040C8010E94A9
:1008C0007C006F2D7E2DC8010E940201811120C085
:1008D00083E391E09F938F930E946F050F900F9099
:1008E00080E090E0C452DF4F0FB6F894DEBF0FBE39
:1008F000CDBF089580E00E94CE02E816F90609F007
:1009000098CFBF92AF920E946F050F900F908ACF41
:10091000B801C8010E94C801882319F082E491E05F
:10092000D9CFB8018D2D9C2D0E94F5008823D1F0E0
:10093000CD52DF4F88819981C35DD0400196CD5261
:10094000DF4F99838883C35DD0408D2D9C2D0E94FD
:10095000EC01B8018D2D9C2D0E948C018D2D9C2DBC
:100960000E94E501CD52DF4F88819981C35DD0405F
:100970008936910519F48AE591E0ACCFC8010E944F
:10098000580067CF97FB072E16F4009407D077FD29
:1009900009D00E94D60407FC05D03EF490958195BD
:1009A0009F4F0895709561957F4F0895AA1BBB1BBB
:1009B00051E107C0AA1FBB1FA617B70710F0A61B5F
:1009C000B70B881F991F5A95A9F780959095BC0180
:1009D000CD010895CF92DF92EF92FF92CF93DF93F4
:1009E000CDB7DEB72A970FB6F894DEBF0FBECDBFE6
:1009F00089879A87A985BA852D913D914D915C9102
:100A000029833A834B835C8382E49EECACE0BFE1B4
:100A1000211531054105510549F1CA01B9012DE101
:100A200033EF41E050E00E94330869017A01A7EA00
:100A3000B1E49B01AC010E94520869837A838B83E5
:100A40009C83ACEEB4EFA70196010E9460089B0165
:100A5000AC0189819A81AB81BC81820F931FA41F55
:100A6000B51FB7FF03C00197A109B048E985FA8512
:100A700080839183A283B3839F772A960FB6F894DD
:100A8000DEBF0FBECDBFDF91CF91FF90EF90DF9023
:100A9000CF9008950E94EA0408958CE191E00E94AD
:100AA000EA040895A0E0B0E080931C0190931D013A
:100AB000A0931E01B0931F0108956817790768F489
:100AC000FB01DC01E40FF51FA40FB51F02C002906B
:100AD0000E9241505040D8F708950C949107A0E031
:100AE000B0E0E5E7F5E00C947508AE014B5F5F4FB1
:100AF000FA0161917191AF0180917C0190917D012A
:100B00000E948505E2E00C949108AFE0B0E0EBE8CC
:100B1000F5E00C9468086C017B018A01DC011796F2
:100B20001C921E92169713968C9181FFECC12AE0BD
:100B3000522EF6019381F70193FD859193FF8191E8
:100B40007F01882309F473C0853239F493FD8591C0
:100B500093FF81917F01853229F4B60190E00E94D4
:100B6000A507E7CF912C612C712CFFE1F71508F454
:100B700046C08B32C9F1F8F48032C1F1833209F4F6
:100B80003BC0833609F48AC0833709F493C08335A8
:100B900009F0B6C0F801A190B1908F01692D70E005
:100BA00076FC02C06FEF7FEFC5010E9486074C0103
:100BB000689477F85FC08D32E1F0803351F020ED1A
:100BC000280F2A3048F18E3209F039C0689476F83F
:100BD00002C0689470F8F70193FD859193FF8191AD
:100BE0007F018111C2CF33C0689471F8689472F8A4
:100BF000F2CF689473F8EFCF689474F8ECCF77FC79
:100C000026C020ED280F2A3070F476FE05C0959C92
:100C1000200D1124922EDFCF659C200D1124622E11
:100C2000689475F8D8CF8E3251F476FECFCFD601C6
:100C300016968D919C912F96EFE00C9484088C363B
:100C400019F4689477F8C7CF883609F4C4CF982F81
:100C50009F7D9554933008F094CF0C5F1F4F8FE326
:100C6000898388248394912CAE014F5F5F4F5A0192
:100C7000E89477F873FC05C0862D90E088169906F5
:100C800040F18114910461F5662009F452CFB60158
:100C900080E290E00E94A5076A94F6CFD8018C917B
:100CA00089830E5F1F4F88248394912CFE01319617
:100CB0005F01DECFD801AD90BD908D01692D70E050
:100CC00076FC02C06FEF7FEFC5010E949A074C01CE
:100CD000CFCFB60180E290E00E94A5076A94CCCF06
:100CE000F50177FC859177FE81915F01B60190E077
:100CF0000E94A50761106A94F1E08F1A9108C1CF94
:100D0000843619F0893609F081C0F80177FE77C082
:100D100061917191819191918F01272D2F76822E72
:100D200097FF09C090958095709561957F4F8F4F83
:100D30009F4F689487F82AE030E0AE014F5F5F4F25
:100D40005A010E94D5078A19A82EBA2C782C86FE43
:100D50000CC0E89470F8A91440F484FE05C082FC2D
:100D600003C0782D7E7E772EB92C74FEA5C0FE01BF
:100D7000EA0DF11D8081803309F097C0872D897EAF
:100D8000782E73FC0EC070FEA6C09A2CB61418F410
:100D9000960C9B18B62C862D8B196B1408F480E0EA
:100DA000B80EB61408F099C06B1874FE98C0B6015E
:100DB00080E390E00E94A50772FE09C088E590E0FC
:100DC00071FC02C088E790E0B6010E94A507A91453
:100DD00008F492C0AA94B12C9FEFA91AB90ADE01B7
:100DE00011964D01AA0EBB1EF50182915F01B6015D
:100DF00090E00E94A5078A149B04B1F745CF61914A
:100E00007191072E000C880B990B86CF872CE894E4
:100E100084F82AE030E0853769F0572D597F852E18
:100E2000803771F118F5883571F18F3609F0FFCEF2
:100E300028E030E0F80187FE2EC081919191A191C8
:100E4000B1918C879D87AE87BF878F01BE016F5F91
:100E50007F4F5B01AB016C857D858E859F850E94F0
:100E6000D5078A19A82EE89487F86FCF883709F03C
:100E7000DECE84FE02C0689482F820E130E0DACF52
:100E8000689484F8F6CF74FE03C0652F6660862EE2
:100E900020E132E0CFCF81919191AC0160E070E030
:100EA0004C875D876E877F87D0CF72FC02C0B3947A
:100EB00068CFB394B39465CF872D8678882309F4DF
:100EC00060CFF5CFB60180E290E00E94A507839441
:100ED0008614C0F360CF8B2CFBCF612C66CF872D9F
:100EE0008678882309F473CF8BE271FE80E277FC69
:100EF0008DE2B60190E069CFB60180E390E00E94F8
:100F0000A5079A9464CF8FEF9FEF95CEFC010590D3
:100F1000615070400110D8F7809590958E0F9F1FFB
:100F20000895FB01DC0102C001900D924150504038
:100F3000D8F70895FC016150704001900110D8F776
:100F4000809590958E0F9F1F08950F931F93CF93B9
:100F5000DF93182F092FEB018B8181FD09C01FEF53
:100F60000FEF812F902FDF91CF911F910F91089557
:100F700082FF14C02E813F818C819D812817390703
:100F80003CF4E881F981CF0101969983888310832D
:100F90008E819F8101969F838E83E3CFE885F985BB
:100FA000812F0995892BA1F3DACFFA01AA272830DE
:100FB00051F1203181F1E8946F936E7F6E5F7F4F26
:100FC0008F4F9F4FAF4FB1E03ED0B4E03CD0670FA2
:100FD000781F891F9A1FA11D680F791F8A1F911DF5
:100FE000A11D6A0F711D811D911DA11D20D009F445
:100FF00068943F912AE0269F11243019305D319387
:10100000DEF6CF010895462F4770405D4193B3E06F
:101010000FD0C9F7F6CF462F4F70405D4A3318F016
:10102000495D31FD4052419302D0A9F7EACFB4E0C7
:10103000A6959795879577956795BA95C9F700977F
:101040006105710508959B01AC010A2E0694579520
:10105000479537952795BA95C9F7620F731F841F77
:10106000951FA01D0895052E97FB1EF400940E9465
:101070004A0857FD07D00E949C0807FC03D04EF495
:101080000C944A0850954095309521953F4F4F4F0D
:101090005F4F089590958095709561957F4F8F4F24
:1010A0009F4F08950E94BE08A59F900DB49F900D7C
:1010B000A49F800D911D11240895B7FF0C94520830
:1010C0000E945208821B930B08952F923F924F92D9
:1010D0005F926F927F928F929F92AF92BF92CF92C8
:1010E000DF92EF92FF920F931F93CF93DF93CDB7D1
:1010F000DEB7CA1BDB0B0FB6F894DEBF0FBECDBF49
:1011000009942A88398848885F846E847D848C8419
:101110009B84AA84B984C884DF80EE80FD800C8122
:101120001B81AA81B981CE0FD11D0FB6F894DEBF05
:101130000FBECDBFED010895A1E21A2EAA1BBB1B65
:10114000FD010DC0AA1FBB1FEE1FFF1FA217B30793
:10115000E407F50720F0A21BB30BE40BF50B661FA9
:10116000771F881F991F1A9469F76095709580956D
:1011700090959B01AC01BD01CF010895A29FB001E4
:10118000B39FC001A39F700D811D1124911DB29FBB
:0E119000700D811D1124911D0895F894FFCF5C
:10119E0000000001000000000000A8020000000096
:1011AE000002000000009702000000000100000095
:1011BE0057414954494E4720464F5220504C4159B1
:1011CE0045520047414D45204F5645522057414C00
:1011DE004C0047414D45204F56455220544F5543E4
:1011EE0048454420534E414B4500594F55205749D1
:0611FE004E212121210019
:00000001FF
